{
  "contractName": "Certificate",
  "abi": [
    {
      "anonymous": false,
      "inputs": [
        {
          "indexed": true,
          "internalType": "address",
          "name": "issuedTo",
          "type": "address"
        },
        {
          "indexed": false,
          "internalType": "string",
          "name": "certHash",
          "type": "string"
        },
        {
          "indexed": false,
          "internalType": "string",
          "name": "issuerName",
          "type": "string"
        },
        {
          "indexed": false,
          "internalType": "string",
          "name": "issuedToName",
          "type": "string"
        },
        {
          "indexed": false,
          "internalType": "string",
          "name": "reason",
          "type": "string"
        }
      ],
      "name": "CertificateIssued",
      "type": "event"
    },
    {
      "inputs": [
        {
          "internalType": "address",
          "name": "",
          "type": "address"
        },
        {
          "internalType": "uint256",
          "name": "",
          "type": "uint256"
        }
      ],
      "name": "certificates",
      "outputs": [
        {
          "internalType": "string",
          "name": "certHash",
          "type": "string"
        },
        {
          "internalType": "string",
          "name": "issuerName",
          "type": "string"
        },
        {
          "internalType": "address",
          "name": "issuedTo",
          "type": "address"
        },
        {
          "internalType": "string",
          "name": "issuedToName",
          "type": "string"
        },
        {
          "internalType": "string",
          "name": "reason",
          "type": "string"
        }
      ],
      "stateMutability": "view",
      "type": "function"
    },
    {
      "inputs": [
        {
          "internalType": "address",
          "name": "_to",
          "type": "address"
        },
        {
          "internalType": "string",
          "name": "_certHash",
          "type": "string"
        },
        {
          "internalType": "string",
          "name": "_issuerName",
          "type": "string"
        },
        {
          "internalType": "string",
          "name": "_issuedToName",
          "type": "string"
        },
        {
          "internalType": "string",
          "name": "_reason",
          "type": "string"
        }
      ],
      "name": "issueCertificate",
      "outputs": [],
      "stateMutability": "nonpayable",
      "type": "function"
    },
    {
      "inputs": [
        {
          "internalType": "address",
          "name": "_owner",
          "type": "address"
        }
      ],
      "name": "getCertificates",
      "outputs": [
        {
          "components": [
            {
              "internalType": "string",
              "name": "certHash",
              "type": "string"
            },
            {
              "internalType": "string",
              "name": "issuerName",
              "type": "string"
            },
            {
              "internalType": "address",
              "name": "issuedTo",
              "type": "address"
            },
            {
              "internalType": "string",
              "name": "issuedToName",
              "type": "string"
            },
            {
              "internalType": "string",
              "name": "reason",
              "type": "string"
            }
          ],
          "internalType": "struct Certificate.CertificateData[]",
          "name": "",
          "type": "tuple[]"
        }
      ],
      "stateMutability": "view",
      "type": "function"
    }
  ],
  "bytecode": "0x608060405234801561000f575f80fd5b506111418061001d5f395ff3fe608060405234801561000f575f80fd5b506004361061003f575f3560e01c806346f3141c14610043578063e9dd92ee14610077578063f1c49c6214610093575b5f80fd5b61005d600480360381019061005891906108a7565b6100c3565b60405161006e95949392919061097e565b60405180910390f35b610091600480360381019061008c9190610b17565b610345565b005b6100ad60048036038101906100a89190610bfe565b6104dd565b6040516100ba9190610dc3565b60405180910390f35b5f602052815f5260405f2081815481106100db575f80fd5b905f5260205f2090600502015f9150915050805f0180546100fb90610e10565b80601f016020809104026020016040519081016040528092919081815260200182805461012790610e10565b80156101725780601f1061014957610100808354040283529160200191610172565b820191905f5260205f20905b81548152906001019060200180831161015557829003601f168201915b50505050509080600101805461018790610e10565b80601f01602080910402602001604051908101604052809291908181526020018280546101b390610e10565b80156101fe5780601f106101d5576101008083540402835291602001916101fe565b820191905f5260205f20905b8154815290600101906020018083116101e157829003601f168201915b505050505090806002015f9054906101000a900473ffffffffffffffffffffffffffffffffffffffff169080600301805461023890610e10565b80601f016020809104026020016040519081016040528092919081815260200182805461026490610e10565b80156102af5780601f10610286576101008083540402835291602001916102af565b820191905f5260205f20905b81548152906001019060200180831161029257829003601f168201915b5050505050908060040180546102c490610e10565b80601f01602080910402602001604051908101604052809291908181526020018280546102f090610e10565b801561033b5780601f106103125761010080835404028352916020019161033b565b820191905f5260205f20905b81548152906001019060200180831161031e57829003601f168201915b5050505050905085565b5f808673ffffffffffffffffffffffffffffffffffffffff1673ffffffffffffffffffffffffffffffffffffffff1681526020019081526020015f206040518060a001604052808681526020018581526020018773ffffffffffffffffffffffffffffffffffffffff16815260200184815260200183815250908060018154018082558091505060019003905f5260205f2090600502015f909190919091505f820151815f0190816103f79190610fdd565b50602082015181600101908161040d9190610fdd565b506040820151816002015f6101000a81548173ffffffffffffffffffffffffffffffffffffffff021916908373ffffffffffffffffffffffffffffffffffffffff16021790555060608201518160030190816104699190610fdd565b50608082015181600401908161047f9190610fdd565b5050508473ffffffffffffffffffffffffffffffffffffffff167fca6dcb6100db5b2031e8e88635afe89c089098e13c5fd5d53634de95c6aca207858585856040516104ce94939291906110ac565b60405180910390a25050505050565b60605f808373ffffffffffffffffffffffffffffffffffffffff1673ffffffffffffffffffffffffffffffffffffffff1681526020019081526020015f20805480602002602001604051908101604052809291908181526020015f905b828210156107fe578382905f5260205f2090600502016040518060a00160405290815f8201805461056a90610e10565b80601f016020809104026020016040519081016040528092919081815260200182805461059690610e10565b80156105e15780601f106105b8576101008083540402835291602001916105e1565b820191905f5260205f20905b8154815290600101906020018083116105c457829003601f168201915b505050505081526020016001820180546105fa90610e10565b80601f016020809104026020016040519081016040528092919081815260200182805461062690610e10565b80156106715780601f1061064857610100808354040283529160200191610671565b820191905f5260205f20905b81548152906001019060200180831161065457829003601f168201915b50505050508152602001600282015f9054906101000a900473ffffffffffffffffffffffffffffffffffffffff1673ffffffffffffffffffffffffffffffffffffffff1673ffffffffffffffffffffffffffffffffffffffff1681526020016003820180546106df90610e10565b80601f016020809104026020016040519081016040528092919081815260200182805461070b90610e10565b80156107565780601f1061072d57610100808354040283529160200191610756565b820191905f5260205f20905b81548152906001019060200180831161073957829003601f168201915b5050505050815260200160048201805461076f90610e10565b80601f016020809104026020016040519081016040528092919081815260200182805461079b90610e10565b80156107e65780601f106107bd576101008083540402835291602001916107e6565b820191905f5260205f20905b8154815290600101906020018083116107c957829003601f168201915b5050505050815250508152602001906001019061053a565b505050509050919050565b5f604051905090565b5f80fd5b5f80fd5b5f73ffffffffffffffffffffffffffffffffffffffff82169050919050565b5f6108438261081a565b9050919050565b61085381610839565b811461085d575f80fd5b50565b5f8135905061086e8161084a565b92915050565b5f819050919050565b61088681610874565b8114610890575f80fd5b50565b5f813590506108a18161087d565b92915050565b5f80604083850312156108bd576108bc610812565b5b5f6108ca85828601610860565b92505060206108db85828601610893565b9150509250929050565b5f81519050919050565b5f82825260208201905092915050565b5f5b8381101561091c578082015181840152602081019050610901565b5f8484015250505050565b5f601f19601f8301169050919050565b5f610941826108e5565b61094b81856108ef565b935061095b8185602086016108ff565b61096481610927565b840191505092915050565b61097881610839565b82525050565b5f60a0820190508181035f8301526109968188610937565b905081810360208301526109aa8187610937565b90506109b9604083018661096f565b81810360608301526109cb8185610937565b905081810360808301526109df8184610937565b90509695505050505050565b5f80fd5b5f80fd5b7f4e487b71000000000000000000000000000000000000000000000000000000005f52604160045260245ffd5b610a2982610927565b810181811067ffffffffffffffff82111715610a4857610a476109f3565b5b80604052505050565b5f610a5a610809565b9050610a668282610a20565b919050565b5f67ffffffffffffffff821115610a8557610a846109f3565b5b610a8e82610927565b9050602081019050919050565b828183375f83830152505050565b5f610abb610ab684610a6b565b610a51565b905082815260208101848484011115610ad757610ad66109ef565b5b610ae2848285610a9b565b509392505050565b5f82601f830112610afe57610afd6109eb565b5b8135610b0e848260208601610aa9565b91505092915050565b5f805f805f60a08688031215610b3057610b2f610812565b5b5f610b3d88828901610860565b955050602086013567ffffffffffffffff811115610b5e57610b5d610816565b5b610b6a88828901610aea565b945050604086013567ffffffffffffffff811115610b8b57610b8a610816565b5b610b9788828901610aea565b935050606086013567ffffffffffffffff811115610bb857610bb7610816565b5b610bc488828901610aea565b925050608086013567ffffffffffffffff811115610be557610be4610816565b5b610bf188828901610aea565b9150509295509295909350565b5f60208284031215610c1357610c12610812565b5b5f610c2084828501610860565b91505092915050565b5f81519050919050565b5f82825260208201905092915050565b5f819050602082019050919050565b5f82825260208201905092915050565b5f610c6c826108e5565b610c768185610c52565b9350610c868185602086016108ff565b610c8f81610927565b840191505092915050565b610ca381610839565b82525050565b5f60a083015f8301518482035f860152610cc38282610c62565b91505060208301518482036020860152610cdd8282610c62565b9150506040830151610cf26040860182610c9a565b5060608301518482036060860152610d0a8282610c62565b91505060808301518482036080860152610d248282610c62565b9150508091505092915050565b5f610d3c8383610ca9565b905092915050565b5f602082019050919050565b5f610d5a82610c29565b610d648185610c33565b935083602082028501610d7685610c43565b805f5b85811015610db15784840389528151610d928582610d31565b9450610d9d83610d44565b925060208a01995050600181019050610d79565b50829750879550505050505092915050565b5f6020820190508181035f830152610ddb8184610d50565b905092915050565b7f4e487b71000000000000000000000000000000000000000000000000000000005f52602260045260245ffd5b5f6002820490506001821680610e2757607f821691505b602082108103610e3a57610e39610de3565b5b50919050565b5f819050815f5260205f209050919050565b5f6020601f8301049050919050565b5f82821b905092915050565b5f60088302610e9c7fffffffffffffffffffffffffffffffffffffffffffffffffffffffffffffffff82610e61565b610ea68683610e61565b95508019841693508086168417925050509392505050565b5f819050919050565b5f610ee1610edc610ed784610874565b610ebe565b610874565b9050919050565b5f819050919050565b610efa83610ec7565b610f0e610f0682610ee8565b848454610e6d565b825550505050565b5f90565b610f22610f16565b610f2d818484610ef1565b505050565b5b81811015610f5057610f455f82610f1a565b600181019050610f33565b5050565b601f821115610f9557610f6681610e40565b610f6f84610e52565b81016020851015610f7e578190505b610f92610f8a85610e52565b830182610f32565b50505b505050565b5f82821c905092915050565b5f610fb55f1984600802610f9a565b1980831691505092915050565b5f610fcd8383610fa6565b9150826002028217905092915050565b610fe6826108e5565b67ffffffffffffffff811115610fff57610ffe6109f3565b5b6110098254610e10565b611014828285610f54565b5f60209050601f831160018114611045575f8415611033578287015190505b61103d8582610fc2565b8655506110a4565b601f19841661105386610e40565b5f5b8281101561107a57848901518255600182019150602085019450602081019050611055565b868310156110975784890151611093601f891682610fa6565b8355505b6001600288020188555050505b505050505050565b5f6080820190508181035f8301526110c48187610937565b905081810360208301526110d88186610937565b905081810360408301526110ec8185610937565b905081810360608301526111008184610937565b90509594505050505056fea2646970667358221220b55672bafe2a40660b8cd7bad405057181b94052b8562cd0dd1cdf5fd9bbd97f64736f6c63430008150033",
  "immutableReferences": {},
  "source": "// SPDX-License-Identifier: MIT\r\npragma solidity ^0.8.9;\r\n\r\ncontract Certificate {\r\n    \r\n    struct CertificateData {\r\n        string certHash;      // IPFS hash of the certificate\r\n        string issuerName;    // issuer's name\r\n        address issuedTo;     // recipient's address\r\n        string issuedToName;  // recipient's human-readable name\r\n        string reason;        // reason for the certificate\r\n    }\r\n\r\n    mapping(address => CertificateData[]) public certificates;\r\n    // maps an ethereum address to an array of certificatedata structs for easy retrieval.\r\n\r\n    event CertificateIssued(\r\n        address indexed issuedTo,\r\n        string certHash,\r\n        string issuerName,\r\n        string issuedToName,  // recipient's name\r\n        string reason\r\n    );\r\n    // emitted when a certificate is issued, logging the recipient's address, cert hash, issuer name, name, and reason.\r\n\r\n    function issueCertificate(\r\n\r\n        address _to,\r\n        string memory _certHash,\r\n        string memory _issuerName,\r\n        string memory _issuedToName, \r\n        string memory _reason\r\n\r\n    ) public {\r\n        // issues a new certificate to the specified address.\r\n\r\n        certificates[_to].push(CertificateData({\r\n            certHash: _certHash,\r\n            issuerName: _issuerName,\r\n            issuedTo: _to,\r\n            issuedToName: _issuedToName,  // store the name\r\n            reason: _reason\r\n        }));\r\n        // adds a new certificatedata struct to the recipient's array.\r\n\r\n        emit CertificateIssued(_to, _certHash, _issuerName, _issuedToName, _reason);\r\n        // logs the certificate issuance on the blockchain.\r\n    }\r\n    // issues a certificate to a specified address and emits an event.\r\n\r\n    function getCertificates(address _owner) public view returns (CertificateData[] memory) {\r\n        return certificates[_owner];\r\n    }\r\n    // retrieves all certificates associated with a given address and returns an array of certificatedata structs for the specified owner.\r\n}\r\n",
  "sourcePath": "C:\\Users\\mahad\\Desktop\\Code\\FSWD\\React\\Credora-IEEE\\contracts\\Certificate.sol",
  "compiler": {
    "name": "solc",
    "version": "0.8.21+commit.d9974bed.Emscripten.clang"
  },
  "schemaVersion": "3.4.16",
  "updatedAt": "2024-10-04T20:25:25.692Z",
  "devdoc": {
    "kind": "dev",
    "methods": {},
    "version": 1
  },
  "userdoc": {
    "kind": "user",
    "methods": {},
    "version": 1
  }
}