{
  "contractName": "Certificate",
  "abi": [
    {
      "inputs": [],
      "stateMutability": "nonpayable",
      "type": "constructor"
    },
    {
      "anonymous": false,
      "inputs": [
        {
          "indexed": true,
          "internalType": "address",
          "name": "issuedTo",
          "type": "address"
        },
        {
          "indexed": false,
          "internalType": "string",
          "name": "certHash",
          "type": "string"
        },
        {
          "indexed": false,
          "internalType": "string",
          "name": "issuerName",
          "type": "string"
        },
        {
          "indexed": false,
          "internalType": "string",
          "name": "issuedToName",
          "type": "string"
        },
        {
          "indexed": false,
          "internalType": "string",
          "name": "reason",
          "type": "string"
        },
        {
          "indexed": false,
          "internalType": "bytes32",
          "name": "uniqueID",
          "type": "bytes32"
        }
      ],
      "name": "CertificateIssued",
      "type": "event"
    },
    {
      "anonymous": false,
      "inputs": [
        {
          "indexed": true,
          "internalType": "bytes32",
          "name": "uniqueID",
          "type": "bytes32"
        },
        {
          "indexed": false,
          "internalType": "string",
          "name": "reason",
          "type": "string"
        }
      ],
      "name": "CertificateRevoked",
      "type": "event"
    },
    {
      "inputs": [
        {
          "internalType": "bytes32",
          "name": "",
          "type": "bytes32"
        }
      ],
      "name": "certificateExists",
      "outputs": [
        {
          "internalType": "bool",
          "name": "",
          "type": "bool"
        }
      ],
      "stateMutability": "view",
      "type": "function"
    },
    {
      "inputs": [
        {
          "internalType": "address",
          "name": "",
          "type": "address"
        },
        {
          "internalType": "uint256",
          "name": "",
          "type": "uint256"
        }
      ],
      "name": "certificates",
      "outputs": [
        {
          "internalType": "string",
          "name": "certHash",
          "type": "string"
        },
        {
          "internalType": "string",
          "name": "issuerName",
          "type": "string"
        },
        {
          "internalType": "address",
          "name": "issuedTo",
          "type": "address"
        },
        {
          "internalType": "string",
          "name": "issuedToName",
          "type": "string"
        },
        {
          "internalType": "string",
          "name": "reason",
          "type": "string"
        },
        {
          "internalType": "uint256",
          "name": "issuedAt",
          "type": "uint256"
        },
        {
          "internalType": "bool",
          "name": "isValid",
          "type": "bool"
        },
        {
          "internalType": "bytes32",
          "name": "uniqueID",
          "type": "bytes32"
        }
      ],
      "stateMutability": "view",
      "type": "function"
    },
    {
      "inputs": [],
      "name": "issuer",
      "outputs": [
        {
          "internalType": "address",
          "name": "",
          "type": "address"
        }
      ],
      "stateMutability": "view",
      "type": "function"
    },
    {
      "inputs": [
        {
          "internalType": "bytes32",
          "name": "",
          "type": "bytes32"
        }
      ],
      "name": "revokedCertificates",
      "outputs": [
        {
          "internalType": "bool",
          "name": "",
          "type": "bool"
        }
      ],
      "stateMutability": "view",
      "type": "function"
    },
    {
      "inputs": [
        {
          "internalType": "address",
          "name": "_to",
          "type": "address"
        },
        {
          "internalType": "string",
          "name": "_certHash",
          "type": "string"
        },
        {
          "internalType": "string",
          "name": "_issuerName",
          "type": "string"
        },
        {
          "internalType": "string",
          "name": "_issuedToName",
          "type": "string"
        },
        {
          "internalType": "string",
          "name": "_reason",
          "type": "string"
        }
      ],
      "name": "issueCertificate",
      "outputs": [],
      "stateMutability": "nonpayable",
      "type": "function"
    },
    {
      "inputs": [
        {
          "internalType": "bytes32",
          "name": "_uniqueID",
          "type": "bytes32"
        }
      ],
      "name": "verifyCertificate",
      "outputs": [
        {
          "internalType": "bool",
          "name": "isValid",
          "type": "bool"
        },
        {
          "components": [
            {
              "internalType": "string",
              "name": "certHash",
              "type": "string"
            },
            {
              "internalType": "string",
              "name": "issuerName",
              "type": "string"
            },
            {
              "internalType": "address",
              "name": "issuedTo",
              "type": "address"
            },
            {
              "internalType": "string",
              "name": "issuedToName",
              "type": "string"
            },
            {
              "internalType": "string",
              "name": "reason",
              "type": "string"
            },
            {
              "internalType": "uint256",
              "name": "issuedAt",
              "type": "uint256"
            },
            {
              "internalType": "bool",
              "name": "isValid",
              "type": "bool"
            },
            {
              "internalType": "bytes32",
              "name": "uniqueID",
              "type": "bytes32"
            }
          ],
          "internalType": "struct Certificate.CertificateData",
          "name": "certData",
          "type": "tuple"
        }
      ],
      "stateMutability": "view",
      "type": "function"
    },
    {
      "inputs": [
        {
          "internalType": "bytes32",
          "name": "_uniqueID",
          "type": "bytes32"
        },
        {
          "internalType": "string",
          "name": "_reason",
          "type": "string"
        }
      ],
      "name": "revokeCertificate",
      "outputs": [],
      "stateMutability": "nonpayable",
      "type": "function"
    },
    {
      "inputs": [
        {
          "internalType": "address",
          "name": "_owner",
          "type": "address"
        }
      ],
      "name": "getCertificates",
      "outputs": [
        {
          "components": [
            {
              "internalType": "string",
              "name": "certHash",
              "type": "string"
            },
            {
              "internalType": "string",
              "name": "issuerName",
              "type": "string"
            },
            {
              "internalType": "address",
              "name": "issuedTo",
              "type": "address"
            },
            {
              "internalType": "string",
              "name": "issuedToName",
              "type": "string"
            },
            {
              "internalType": "string",
              "name": "reason",
              "type": "string"
            },
            {
              "internalType": "uint256",
              "name": "issuedAt",
              "type": "uint256"
            },
            {
              "internalType": "bool",
              "name": "isValid",
              "type": "bool"
            },
            {
              "internalType": "bytes32",
              "name": "uniqueID",
              "type": "bytes32"
            }
          ],
          "internalType": "struct Certificate.CertificateData[]",
          "name": "",
          "type": "tuple[]"
        }
      ],
      "stateMutability": "view",
      "type": "function"
    },
    {
      "inputs": [
        {
          "internalType": "address",
          "name": "_recipient",
          "type": "address"
        },
        {
          "internalType": "string",
          "name": "_certHash",
          "type": "string"
        }
      ],
      "name": "verifyCertificateByHash",
      "outputs": [
        {
          "internalType": "bool",
          "name": "",
          "type": "bool"
        },
        {
          "components": [
            {
              "internalType": "string",
              "name": "certHash",
              "type": "string"
            },
            {
              "internalType": "string",
              "name": "issuerName",
              "type": "string"
            },
            {
              "internalType": "address",
              "name": "issuedTo",
              "type": "address"
            },
            {
              "internalType": "string",
              "name": "issuedToName",
              "type": "string"
            },
            {
              "internalType": "string",
              "name": "reason",
              "type": "string"
            },
            {
              "internalType": "uint256",
              "name": "issuedAt",
              "type": "uint256"
            },
            {
              "internalType": "bool",
              "name": "isValid",
              "type": "bool"
            },
            {
              "internalType": "bytes32",
              "name": "uniqueID",
              "type": "bytes32"
            }
          ],
          "internalType": "struct Certificate.CertificateData",
          "name": "",
          "type": "tuple"
        }
      ],
      "stateMutability": "view",
      "type": "function"
    }
  ],
  "bytecode": "0x60a060405234801561001057600080fd5b5033608052608051611d2561003d60003960008181609d0152818161047a0152610f100152611d256000f3fe608060405234801561001057600080fd5b50600436106100935760003560e01c8063850c176811610066578063850c1768146101395780639e84a4801461014c578063b440983e1461017f578063e9dd92ee146101a2578063f1c49c62146101b557600080fd5b80631d1438481461009857806346f3141c146100dc5780635bf4adfb1461010357806377dce1e314610118575b600080fd5b6100bf7f000000000000000000000000000000000000000000000000000000000000000081565b6040516001600160a01b0390911681526020015b60405180910390f35b6100ef6100ea366004611607565b6101d5565b6040516100d3989796959493929190611681565b6101166101113660046117a4565b61046f565b005b61012b6101263660046117eb565b6105d4565b6040516100d39291906118d7565b61012b6101473660046118fa565b610a3b565b61016f61015a3660046118fa565b60026020526000908152604090205460ff1681565b60405190151581526020016100d3565b61016f61018d3660046118fa565b60016020526000908152604090205460ff1681565b6101166101b0366004611913565b610f05565b6101c86101c33660046119d1565b6111ed565b6040516100d391906119f3565b600060205281600052604060002081815481106101f157600080fd5b90600052602060002090600802016000915091505080600001805461021590611a55565b80601f016020809104026020016040519081016040528092919081815260200182805461024190611a55565b801561028e5780601f106102635761010080835404028352916020019161028e565b820191906000526020600020905b81548152906001019060200180831161027157829003601f168201915b5050505050908060010180546102a390611a55565b80601f01602080910402602001604051908101604052809291908181526020018280546102cf90611a55565b801561031c5780601f106102f15761010080835404028352916020019161031c565b820191906000526020600020905b8154815290600101906020018083116102ff57829003601f168201915b505050600284015460038501805494956001600160a01b0390921694919350915061034690611a55565b80601f016020809104026020016040519081016040528092919081815260200182805461037290611a55565b80156103bf5780601f10610394576101008083540402835291602001916103bf565b820191906000526020600020905b8154815290600101906020018083116103a257829003601f168201915b5050505050908060040180546103d490611a55565b80601f016020809104026020016040519081016040528092919081815260200182805461040090611a55565b801561044d5780601f106104225761010080835404028352916020019161044d565b820191906000526020600020905b81548152906001019060200180831161043057829003601f168201915b50505050600583015460068401546007909401549293909260ff909116915088565b336001600160a01b037f000000000000000000000000000000000000000000000000000000000000000016146104c05760405162461bcd60e51b81526004016104b790611a8f565b60405180910390fd5b60008281526001602052604090205460ff1661051e5760405162461bcd60e51b815260206004820152601a60248201527f436572746966696361746520646f6573206e6f7420657869737400000000000060448201526064016104b7565b60008281526002602052604090205460ff161561057d5760405162461bcd60e51b815260206004820152601e60248201527f436572746966696361746520697320616c7265616479207265766f6b6564000060448201526064016104b7565b60008281526002602052604090819020805460ff191660011790555182907f6a67f6498e0156955d3a658d7124084b43548b0eaa26ee2105ccf42059efe112906105c8908490611ad5565b60405180910390a25050565b60006105de611598565b6001600160a01b03841660009081526020818152604080832080548251818502810185019093528083529192909190849084015b828210156108cd57838290600052602060002090600802016040518061010001604052908160008201805461064690611a55565b80601f016020809104026020016040519081016040528092919081815260200182805461067290611a55565b80156106bf5780601f10610694576101008083540402835291602001916106bf565b820191906000526020600020905b8154815290600101906020018083116106a257829003601f168201915b505050505081526020016001820180546106d890611a55565b80601f016020809104026020016040519081016040528092919081815260200182805461070490611a55565b80156107515780601f1061072657610100808354040283529160200191610751565b820191906000526020600020905b81548152906001019060200180831161073457829003601f168201915b505050918352505060028201546001600160a01b0316602082015260038201805460409092019161078190611a55565b80601f01602080910402602001604051908101604052809291908181526020018280546107ad90611a55565b80156107fa5780601f106107cf576101008083540402835291602001916107fa565b820191906000526020600020905b8154815290600101906020018083116107dd57829003601f168201915b5050505050815260200160048201805461081390611a55565b80601f016020809104026020016040519081016040528092919081815260200182805461083f90611a55565b801561088c5780601f106108615761010080835404028352916020019161088c565b820191906000526020600020905b81548152906001019060200180831161086f57829003601f168201915b50505091835250506005820154602080830191909152600683015460ff16151560408301526007909201546060909101529082526001929092019101610612565b50505050905060005b81518110156109c557846040516020016108f09190611ae8565b6040516020818303038152906040528051906020012082828151811061091857610918611b04565b6020026020010151600001516040516020016109349190611ae8565b60405160208183030381529060405280519060200120036109b3576002600083838151811061096557610965611b04565b602002602001015160e00151815260200190815260200160002060009054906101000a900460ff16158282815181106109a0576109a0611b04565b6020026020010151935093505050610a34565b806109bd81611b1a565b9150506108d6565b50506040805161012081018252600061010082018181528252825160208181018552828252808401919091528284018290528351808201855282815260608401528351908101909352808352608082019290925260a0810182905260c0810182905260e0810182905290925090505b9250929050565b6000610a45611598565b60008381526001602052604090205460ff16610aa35760405162461bcd60e51b815260206004820152601a60248201527f436572746966696361746520646f6573206e6f7420657869737400000000000060448201526064016104b7565b60008381526002602052604090205460ff1615610b275750506040805161012081018252600061010082018181528252825160208181018552828252808401919091528284018290528351808201855282815260608401528351908101909352808352608082019290925260a0810182905260c0810182905260e081019290925291565b6000610b32846114e9565b6001600160a01b03811660009081526020818152604080832080548251818502810185019093528083529495509293909291849084015b82821015610e24578382906000526020600020906008020160405180610100016040529081600082018054610b9d90611a55565b80601f0160208091040260200160405190810160405280929190818152602001828054610bc990611a55565b8015610c165780601f10610beb57610100808354040283529160200191610c16565b820191906000526020600020905b815481529060010190602001808311610bf957829003601f168201915b50505050508152602001600182018054610c2f90611a55565b80601f0160208091040260200160405190810160405280929190818152602001828054610c5b90611a55565b8015610ca85780601f10610c7d57610100808354040283529160200191610ca8565b820191906000526020600020905b815481529060010190602001808311610c8b57829003601f168201915b505050918352505060028201546001600160a01b03166020820152600382018054604090920191610cd890611a55565b80601f0160208091040260200160405190810160405280929190818152602001828054610d0490611a55565b8015610d515780601f10610d2657610100808354040283529160200191610d51565b820191906000526020600020905b815481529060010190602001808311610d3457829003601f168201915b50505050508152602001600482018054610d6a90611a55565b80601f0160208091040260200160405190810160405280929190818152602001828054610d9690611a55565b8015610de35780601f10610db857610100808354040283529160200191610de3565b820191906000526020600020905b815481529060010190602001808311610dc657829003601f168201915b50505091835250506005820154602080830191909152600683015460ff16151560408301526007909201546060909101529082526001929092019101610b69565b50505050905060005b8151811015610e945785828281518110610e4957610e49611b04565b602002602001015160e0015103610e82576001828281518110610e6e57610e6e611b04565b602002602001015194509450505050915091565b80610e8c81611b1a565b915050610e2d565b50506040805161012081018252600061010082018181528252825160208181018552828252808401919091528284018290528351808201855282815260608401528351908101909352808352608082019290925260a0810182905260c0810182905260e08101959095529492505050565b336001600160a01b037f00000000000000000000000000000000000000000000000000000000000000001614610f4d5760405162461bcd60e51b81526004016104b790611a8f565b6001600160a01b038516610fa35760405162461bcd60e51b815260206004820152601960248201527f496e76616c696420726563697069656e7420616464726573730000000000000060448201526064016104b7565b6000845111610ff45760405162461bcd60e51b815260206004820181905260248201527f436572746966696361746520686173682063616e6e6f7420626520656d70747960448201526064016104b7565b6000611001868642611562565b60008181526001602052604090205490915060ff16156110735760405162461bcd60e51b815260206004820152602760248201527f43657274696669636174652077697468207468697320494420616c72656164796044820152662065786973747360c81b60648201526084016104b7565b604080516101008101825286815260208082018790526001600160a01b03891682840181905260608301879052608083018690524260a0840152600160c0840181905260e0840186905260009182528183529381208054948501815581522081519192839260089091029091019081906110ed9082611b90565b50602082015160018201906111029082611b90565b5060408201516002820180546001600160a01b0319166001600160a01b039092169190911790556060820151600382019061113d9082611b90565b50608082015160048201906111529082611b90565b5060a0820151600582015560c082015160068201805491151560ff1992831617905560e090920151600790910155600083815260016020819052604091829020805490931617909155516001600160a01b038816907fedab117272e24d4032b552018e1dd4f03405b3b7491ad2d96d4959773512428f906111dc9089908990899089908990611c50565b60405180910390a250505050505050565b6001600160a01b038116600090815260208181526040808320805482518185028101850190935280835260609492939192909184015b828210156114de57838290600052602060002090600802016040518061010001604052908160008201805461125790611a55565b80601f016020809104026020016040519081016040528092919081815260200182805461128390611a55565b80156112d05780601f106112a5576101008083540402835291602001916112d0565b820191906000526020600020905b8154815290600101906020018083116112b357829003601f168201915b505050505081526020016001820180546112e990611a55565b80601f016020809104026020016040519081016040528092919081815260200182805461131590611a55565b80156113625780601f1061133757610100808354040283529160200191611362565b820191906000526020600020905b81548152906001019060200180831161134557829003601f168201915b505050918352505060028201546001600160a01b0316602082015260038201805460409092019161139290611a55565b80601f01602080910402602001604051908101604052809291908181526020018280546113be90611a55565b801561140b5780601f106113e05761010080835404028352916020019161140b565b820191906000526020600020905b8154815290600101906020018083116113ee57829003601f168201915b5050505050815260200160048201805461142490611a55565b80601f016020809104026020016040519081016040528092919081815260200182805461145090611a55565b801561149d5780601f106114725761010080835404028352916020019161149d565b820191906000526020600020905b81548152906001019060200180831161148057829003601f168201915b50505091835250506005820154602080830191909152600683015460ff16151560408301526007909201546060909101529082526001929092019101611223565b505050509050919050565b6000805b336000908152602081905260409020548110156115595733600090815260208190526040902080548491908390811061152857611528611b04565b9060005260206000209060080201600701540361154757503392915050565b8061155181611b1a565b9150506114ed565b50600092915050565b600083838360405160200161157993929190611cb0565b6040516020818303038152906040528051906020012090509392505050565b604051806101000160405280606081526020016060815260200160006001600160a01b03168152602001606081526020016060815260200160008152602001600015158152602001600080191681525090565b80356001600160a01b038116811461160257600080fd5b919050565b6000806040838503121561161a57600080fd5b611623836115eb565b946020939093013593505050565b60005b8381101561164c578181015183820152602001611634565b50506000910152565b6000815180845261166d816020860160208601611631565b601f01601f19169290920160200192915050565b60006101008083526116958184018c611655565b905082810360208401526116a9818b611655565b6001600160a01b038a166040850152838103606085015290506116cc8189611655565b905082810360808401526116e08188611655565b60a0840196909652505091151560c083015260e09091015295945050505050565b634e487b7160e01b600052604160045260246000fd5b600082601f83011261172857600080fd5b813567ffffffffffffffff8082111561174357611743611701565b604051601f8301601f19908116603f0116810190828211818310171561176b5761176b611701565b8160405283815286602085880101111561178457600080fd5b836020870160208301376000602085830101528094505050505092915050565b600080604083850312156117b757600080fd5b82359150602083013567ffffffffffffffff8111156117d557600080fd5b6117e185828601611717565b9150509250929050565b600080604083850312156117fe57600080fd5b611807836115eb565b9150602083013567ffffffffffffffff8111156117d557600080fd5b6000610100825181855261183982860182611655565b915050602083015184820360208601526118538282611655565b915050604083015161187060408601826001600160a01b03169052565b50606083015184820360608601526118888282611655565b915050608083015184820360808601526118a28282611655565b91505060a083015160a085015260c08301516118c260c086018215159052565b5060e083015160e08501528091505092915050565b82151581526040602082015260006118f26040830184611823565b949350505050565b60006020828403121561190c57600080fd5b5035919050565b600080600080600060a0868803121561192b57600080fd5b611934866115eb565b9450602086013567ffffffffffffffff8082111561195157600080fd5b61195d89838a01611717565b9550604088013591508082111561197357600080fd5b61197f89838a01611717565b9450606088013591508082111561199557600080fd5b6119a189838a01611717565b935060808801359150808211156119b757600080fd5b506119c488828901611717565b9150509295509295909350565b6000602082840312156119e357600080fd5b6119ec826115eb565b9392505050565b6000602080830181845280855180835260408601915060408160051b870101925083870160005b82811015611a4857603f19888603018452611a36858351611823565b94509285019290850190600101611a1a565b5092979650505050505050565b600181811c90821680611a6957607f821691505b602082108103611a8957634e487b7160e01b600052602260045260246000fd5b50919050565b60208082526026908201527f4f6e6c7920746865206973737565722063616e2069737375652063657274696660408201526569636174657360d01b606082015260800190565b6020815260006119ec6020830184611655565b60008251611afa818460208701611631565b9190910192915050565b634e487b7160e01b600052603260045260246000fd5b600060018201611b3a57634e487b7160e01b600052601160045260246000fd5b5060010190565b601f821115611b8b57600081815260208120601f850160051c81016020861015611b685750805b601f850160051c820191505b81811015611b8757828155600101611b74565b5050505b505050565b815167ffffffffffffffff811115611baa57611baa611701565b611bbe81611bb88454611a55565b84611b41565b602080601f831160018114611bf35760008415611bdb5750858301515b600019600386901b1c1916600185901b178555611b87565b600085815260208120601f198616915b82811015611c2257888601518255948401946001909101908401611c03565b5085821015611c405787850151600019600388901b60f8161c191681555b5050505050600190811b01905550565b60a081526000611c6360a0830188611655565b8281036020840152611c758188611655565b90508281036040840152611c898187611655565b90508281036060840152611c9d8186611655565b9150508260808301529695505050505050565b6bffffffffffffffffffffffff198460601b16815260008351611cda816014850160208801611631565b6014920191820192909252603401939250505056fea2646970667358221220810f4e90102d510e840d22587ab62798813bc56a18df0d1cf98f6c7082592a8c64736f6c63430008130033",
  "immutableReferences": {
    "34": [
      {
        "length": 32,
        "start": 157
      },
      {
        "length": 32,
        "start": 1146
      },
      {
        "length": 32,
        "start": 3856
      }
    ]
  },
  "source": "// SPDX-License-Identifier: MIT\r\npragma solidity ^0.8.19;\r\n\r\ncontract Certificate {\r\n    struct CertificateData {\r\n        string certHash;      // IPFS hash of the certificate\r\n        string issuerName;    // issuer's name\r\n        address issuedTo;     // recipient's address\r\n        string issuedToName;  // recipient's human-readable name\r\n        string reason;        // reason for the certificate\r\n        uint256 issuedAt;    // timestamp when certificate was issued\r\n        bool isValid;        // flag to track if certificate is still valid\r\n        bytes32 uniqueID;    // unique identifier for the certificate\r\n    }\r\n\r\n    mapping(address => CertificateData[]) public certificates;\r\n    mapping(bytes32 => bool) public certificateExists;  // Track unique certificates\r\n    mapping(bytes32 => bool) public revokedCertificates;  // Track revoked certificates\r\n    \r\n    address public immutable issuer;\r\n    \r\n    event CertificateIssued(\r\n        address indexed issuedTo,\r\n        string certHash,\r\n        string issuerName,\r\n        string issuedToName,\r\n        string reason,\r\n        bytes32 uniqueID\r\n    );\r\n\r\n    event CertificateRevoked(\r\n        bytes32 indexed uniqueID,\r\n        string reason\r\n    );\r\n\r\n    constructor() {\r\n        issuer = msg.sender;\r\n    }\r\n\r\n    modifier onlyIssuer() {\r\n        require(msg.sender == issuer, \"Only the issuer can issue certificates\");\r\n        _;\r\n    }\r\n\r\n    // Generate a unique ID for each certificate\r\n    function generateUniqueID(\r\n        address _to,\r\n        string memory _certHash,\r\n        uint256 _timestamp\r\n    ) internal pure returns (bytes32) {\r\n        return keccak256(abi.encodePacked(_to, _certHash, _timestamp));\r\n    }\r\n\r\n    function issueCertificate(\r\n        address _to,\r\n        string memory _certHash,\r\n        string memory _issuerName,\r\n        string memory _issuedToName,\r\n        string memory _reason\r\n    ) public onlyIssuer {\r\n        require(_to != address(0), \"Invalid recipient address\");\r\n        require(bytes(_certHash).length > 0, \"Certificate hash cannot be empty\");\r\n        \r\n        // Generate unique ID for the certificate\r\n        bytes32 uniqueID = generateUniqueID(_to, _certHash, block.timestamp);\r\n        require(!certificateExists[uniqueID], \"Certificate with this ID already exists\");\r\n\r\n        // Create new certificate\r\n        CertificateData memory newCert = CertificateData({\r\n            certHash: _certHash,\r\n            issuerName: _issuerName,\r\n            issuedTo: _to,\r\n            issuedToName: _issuedToName,\r\n            reason: _reason,\r\n            issuedAt: block.timestamp,\r\n            isValid: true,\r\n            uniqueID: uniqueID\r\n        });\r\n\r\n        certificates[_to].push(newCert);\r\n        certificateExists[uniqueID] = true;\r\n\r\n        emit CertificateIssued(\r\n            _to, \r\n            _certHash, \r\n            _issuerName, \r\n            _issuedToName, \r\n            _reason,\r\n            uniqueID\r\n        );\r\n    }\r\n\r\n    // Verify a specific certificate by its unique ID\r\n    function verifyCertificate(bytes32 _uniqueID) public view returns (\r\n        bool isValid,\r\n        CertificateData memory certData\r\n    ) {\r\n        require(certificateExists[_uniqueID], \"Certificate does not exist\");\r\n        \r\n        // Check if certificate is revoked\r\n        if (revokedCertificates[_uniqueID]) {\r\n            return (false, CertificateData(\"\", \"\", address(0), \"\", \"\", 0, false, _uniqueID));\r\n        }\r\n\r\n        // Find the certificate\r\n        address recipient = findCertificateRecipient(_uniqueID);\r\n        CertificateData[] memory recipientCerts = certificates[recipient];\r\n        \r\n        for (uint i = 0; i < recipientCerts.length; i++) {\r\n            if (recipientCerts[i].uniqueID == _uniqueID) {\r\n                return (true, recipientCerts[i]);\r\n            }\r\n        }\r\n        \r\n        return (false, CertificateData(\"\", \"\", address(0), \"\", \"\", 0, false, _uniqueID));\r\n    }\r\n\r\n    // Helper function to find certificate recipient by uniqueID\r\n    function findCertificateRecipient(bytes32 _uniqueID) internal view returns (address) {\r\n        for (uint i = 0; i < certificates[msg.sender].length; i++) {\r\n            if (certificates[msg.sender][i].uniqueID == _uniqueID) {\r\n                return msg.sender;\r\n            }\r\n        }\r\n        return address(0);\r\n    }\r\n\r\n    // Revoke a certificate\r\n    function revokeCertificate(bytes32 _uniqueID, string memory _reason) public onlyIssuer {\r\n        require(certificateExists[_uniqueID], \"Certificate does not exist\");\r\n        require(!revokedCertificates[_uniqueID], \"Certificate is already revoked\");\r\n        \r\n        revokedCertificates[_uniqueID] = true;\r\n        emit CertificateRevoked(_uniqueID, _reason);\r\n    }\r\n\r\n    // Get all certificates for an address\r\n    function getCertificates(address _owner) public view returns (CertificateData[] memory) {\r\n        return certificates[_owner];\r\n    }\r\n\r\n    // Verify certificate by hash (additional verification method)\r\n    function verifyCertificateByHash(address _recipient, string memory _certHash) \r\n        public view returns (bool, CertificateData memory) {\r\n        CertificateData[] memory recipientCerts = certificates[_recipient];\r\n        \r\n        for (uint i = 0; i < recipientCerts.length; i++) {\r\n            if (keccak256(abi.encodePacked(recipientCerts[i].certHash)) == \r\n                keccak256(abi.encodePacked(_certHash))) {\r\n                return (\r\n                    !revokedCertificates[recipientCerts[i].uniqueID],\r\n                    recipientCerts[i]\r\n                );\r\n            }\r\n        }\r\n        \r\n        return (false, CertificateData(\"\", \"\", address(0), \"\", \"\", 0, false, bytes32(0)));\r\n    }\r\n}",
  "sourcePath": "C:\\Users\\mahad\\Desktop\\Code\\FSWD\\React\\Credora-IEEE\\contracts\\Certificate.sol",
  "compiler": {
    "name": "solc",
    "version": "0.8.19+commit.7dd6d404.Emscripten.clang"
  },
  "schemaVersion": "3.4.16",
  "updatedAt": "2024-10-06T20:56:01.227Z",
  "devdoc": {
    "kind": "dev",
    "methods": {},
    "version": 1
  },
  "userdoc": {
    "kind": "user",
    "methods": {},
    "version": 1
  }
}