{
  "contractName": "Certificate",
  "abi": [
    {
      "inputs": [],
      "stateMutability": "nonpayable",
      "type": "constructor"
    },
    {
      "anonymous": false,
      "inputs": [
        {
          "indexed": true,
          "internalType": "address",
          "name": "issuedTo",
          "type": "address"
        },
        {
          "indexed": false,
          "internalType": "string",
          "name": "certHash",
          "type": "string"
        },
        {
          "indexed": false,
          "internalType": "string",
          "name": "issuerName",
          "type": "string"
        },
        {
          "indexed": false,
          "internalType": "string",
          "name": "issuedToName",
          "type": "string"
        },
        {
          "indexed": false,
          "internalType": "string",
          "name": "reason",
          "type": "string"
        }
      ],
      "name": "CertificateIssued",
      "type": "event"
    },
    {
      "inputs": [
        {
          "internalType": "address",
          "name": "",
          "type": "address"
        },
        {
          "internalType": "uint256",
          "name": "",
          "type": "uint256"
        }
      ],
      "name": "certificates",
      "outputs": [
        {
          "internalType": "string",
          "name": "certHash",
          "type": "string"
        },
        {
          "internalType": "string",
          "name": "issuerName",
          "type": "string"
        },
        {
          "internalType": "address",
          "name": "issuedTo",
          "type": "address"
        },
        {
          "internalType": "string",
          "name": "issuedToName",
          "type": "string"
        },
        {
          "internalType": "string",
          "name": "reason",
          "type": "string"
        }
      ],
      "stateMutability": "view",
      "type": "function"
    },
    {
      "inputs": [],
      "name": "issuer",
      "outputs": [
        {
          "internalType": "address",
          "name": "",
          "type": "address"
        }
      ],
      "stateMutability": "view",
      "type": "function"
    },
    {
      "inputs": [
        {
          "internalType": "address",
          "name": "_to",
          "type": "address"
        },
        {
          "internalType": "string",
          "name": "_certHash",
          "type": "string"
        },
        {
          "internalType": "string",
          "name": "_issuerName",
          "type": "string"
        },
        {
          "internalType": "string",
          "name": "_issuedToName",
          "type": "string"
        },
        {
          "internalType": "string",
          "name": "_reason",
          "type": "string"
        }
      ],
      "name": "issueCertificate",
      "outputs": [],
      "stateMutability": "nonpayable",
      "type": "function"
    },
    {
      "inputs": [
        {
          "internalType": "address",
          "name": "_owner",
          "type": "address"
        }
      ],
      "name": "getCertificates",
      "outputs": [
        {
          "components": [
            {
              "internalType": "string",
              "name": "certHash",
              "type": "string"
            },
            {
              "internalType": "string",
              "name": "issuerName",
              "type": "string"
            },
            {
              "internalType": "address",
              "name": "issuedTo",
              "type": "address"
            },
            {
              "internalType": "string",
              "name": "issuedToName",
              "type": "string"
            },
            {
              "internalType": "string",
              "name": "reason",
              "type": "string"
            }
          ],
          "internalType": "struct Certificate.CertificateData[]",
          "name": "",
          "type": "tuple[]"
        }
      ],
      "stateMutability": "view",
      "type": "function"
    }
  ],
  "bytecode": "0x6080604052348015600e575f5ffd5b50600180546001600160a01b03191633179055610e248061002e5f395ff3fe608060405234801561000f575f5ffd5b506004361061004a575f3560e01c80631d1438481461004e57806346f3141c1461007e578063e9dd92ee146100a2578063f1c49c62146100b7575b5f5ffd5b600154610061906001600160a01b031681565b6040516001600160a01b0390911681526020015b60405180910390f35b61009161008c3660046108a8565b6100d7565b6040516100759594939291906108fe565b6100b56100b0366004610a04565b610349565b005b6100ca6100c5366004610acd565b6105c7565b6040516100759190610aed565b5f602052815f5260405f2081815481106100ef575f80fd5b905f5260205f2090600502015f9150915050805f01805461010f90610bbd565b80601f016020809104026020016040519081016040528092919081815260200182805461013b90610bbd565b80156101865780601f1061015d57610100808354040283529160200191610186565b820191905f5260205f20905b81548152906001019060200180831161016957829003601f168201915b50505050509080600101805461019b90610bbd565b80601f01602080910402602001604051908101604052809291908181526020018280546101c790610bbd565b80156102125780601f106101e957610100808354040283529160200191610212565b820191905f5260205f20905b8154815290600101906020018083116101f557829003601f168201915b505050600284015460038501805494956001600160a01b0390921694919350915061023c90610bbd565b80601f016020809104026020016040519081016040528092919081815260200182805461026890610bbd565b80156102b35780601f1061028a576101008083540402835291602001916102b3565b820191905f5260205f20905b81548152906001019060200180831161029657829003601f168201915b5050505050908060040180546102c890610bbd565b80601f01602080910402602001604051908101604052809291908181526020018280546102f490610bbd565b801561033f5780601f106103165761010080835404028352916020019161033f565b820191905f5260205f20905b81548152906001019060200180831161032257829003601f168201915b5050505050905085565b6001546001600160a01b031633146103b75760405162461bcd60e51b815260206004820152602660248201527f4f6e6c7920746865206973737565722063616e2069737375652063657274696660448201526569636174657360d01b60648201526084015b60405180910390fd5b5f5b6001600160a01b0386165f908152602081905260409020548110156104b057846040516020016103e99190610bf5565b60408051601f1981840301815291815281516020928301206001600160a01b0389165f90815292839052912080548390811061042757610427610c0b565b905f5260205f2090600502015f016040516020016104459190610c1f565b60405160208183030381529060405280519060200120036104a85760405162461bcd60e51b815260206004820152601b60248201527f436572746966696361746520616c72656164792069737375656421000000000060448201526064016103ae565b6001016103b9565b506001600160a01b0385165f81815260208181526040808320815160a0810183528981528084018990529182019490945260608101869052608081018590528354600181018555938352912081519192600502019081906105119082610cdc565b50602082015160018201906105269082610cdc565b5060408201516002820180546001600160a01b0319166001600160a01b03909216919091179055606082015160038201906105619082610cdc565b50608082015160048201906105769082610cdc565b505050846001600160a01b03167fca6dcb6100db5b2031e8e88635afe89c089098e13c5fd5d53634de95c6aca207858585856040516105b89493929190610d97565b60405180910390a25050505050565b6001600160a01b0381165f90815260208181526040808320805482518185028101850190935280835260609492939192909184015b82821015610882578382905f5260205f2090600502016040518060a00160405290815f8201805461062c90610bbd565b80601f016020809104026020016040519081016040528092919081815260200182805461065890610bbd565b80156106a35780601f1061067a576101008083540402835291602001916106a3565b820191905f5260205f20905b81548152906001019060200180831161068657829003601f168201915b505050505081526020016001820180546106bc90610bbd565b80601f01602080910402602001604051908101604052809291908181526020018280546106e890610bbd565b80156107335780601f1061070a57610100808354040283529160200191610733565b820191905f5260205f20905b81548152906001019060200180831161071657829003601f168201915b505050918352505060028201546001600160a01b0316602082015260038201805460409092019161076390610bbd565b80601f016020809104026020016040519081016040528092919081815260200182805461078f90610bbd565b80156107da5780601f106107b1576101008083540402835291602001916107da565b820191905f5260205f20905b8154815290600101906020018083116107bd57829003601f168201915b505050505081526020016004820180546107f390610bbd565b80601f016020809104026020016040519081016040528092919081815260200182805461081f90610bbd565b801561086a5780601f106108415761010080835404028352916020019161086a565b820191905f5260205f20905b81548152906001019060200180831161084d57829003601f168201915b505050505081525050815260200190600101906105fc565b505050509050919050565b80356001600160a01b03811681146108a3575f5ffd5b919050565b5f5f604083850312156108b9575f5ffd5b6108c28361088d565b946020939093013593505050565b5f81518084528060208401602086015e5f602082860101526020601f19601f83011685010191505092915050565b60a081525f61091060a08301886108d0565b828103602084015261092281886108d0565b6001600160a01b03871660408501528381036060850152905061094581866108d0565b9050828103608084015261095981856108d0565b98975050505050505050565b634e487b7160e01b5f52604160045260245ffd5b5f82601f830112610988575f5ffd5b813567ffffffffffffffff8111156109a2576109a2610965565b604051601f8201601f19908116603f0116810167ffffffffffffffff811182821017156109d1576109d1610965565b6040528181528382016020018510156109e8575f5ffd5b816020850160208301375f918101602001919091529392505050565b5f5f5f5f5f60a08688031215610a18575f5ffd5b610a218661088d565b9450602086013567ffffffffffffffff811115610a3c575f5ffd5b610a4888828901610979565b945050604086013567ffffffffffffffff811115610a64575f5ffd5b610a7088828901610979565b935050606086013567ffffffffffffffff811115610a8c575f5ffd5b610a9888828901610979565b925050608086013567ffffffffffffffff811115610ab4575f5ffd5b610ac088828901610979565b9150509295509295909350565b5f60208284031215610add575f5ffd5b610ae68261088d565b9392505050565b5f602082016020835280845180835260408501915060408160051b8601019250602086015f5b82811015610bb157603f198786030184528151805160a08752610b3960a08801826108d0565b905060208201518782036020890152610b5282826108d0565b91505060018060a01b03604083015116604088015260608201518782036060890152610b7e82826108d0565b915050608082015191508681036080880152610b9a81836108d0565b965050506020938401939190910190600101610b13565b50929695505050505050565b600181811c90821680610bd157607f821691505b602082108103610bef57634e487b7160e01b5f52602260045260245ffd5b50919050565b5f82518060208501845e5f920191825250919050565b634e487b7160e01b5f52603260045260245ffd5b5f5f8354610c2c81610bbd565b600182168015610c435760018114610c5857610c85565b60ff1983168652811515820286019350610c85565b865f5260205f205f5b83811015610c7d57815488820152600190910190602001610c61565b505081860193505b509195945050505050565b601f821115610cd757805f5260205f20601f840160051c81016020851015610cb55750805b601f840160051c820191505b81811015610cd4575f8155600101610cc1565b50505b505050565b815167ffffffffffffffff811115610cf657610cf6610965565b610d0a81610d048454610bbd565b84610c90565b6020601f821160018114610d3c575f8315610d255750848201515b5f19600385901b1c1916600184901b178455610cd4565b5f84815260208120601f198516915b82811015610d6b5787850151825560209485019460019092019101610d4b565b5084821015610d8857868401515f19600387901b60f8161c191681555b50505050600190811b01905550565b608081525f610da960808301876108d0565b8281036020840152610dbb81876108d0565b90508281036040840152610dcf81866108d0565b90508281036060840152610de381856108d0565b97965050505050505056fea2646970667358221220a00cf0152f53b5cc2f16a7dff42ddad1f9a28ce91e9aedfc7a79035f15147f3b64736f6c634300081b0033",
  "immutableReferences": {},
  "source": "// SPDX-License-Identifier: MIT\r\npragma solidity ^0.8.19;\r\n\r\ncontract Certificate {\r\n    \r\n    struct CertificateData {\r\n        string certHash;      // IPFS hash of the certificate\r\n        string issuerName;    // issuer's name\r\n        address issuedTo;     // recipient's address\r\n        string issuedToName;  // recipient's human-readable name\r\n        string reason;        // reason for the certificate\r\n    }\r\n\r\n    mapping(address => CertificateData[]) public certificates;\r\n    // maps an ethereum address to an array of certificatedata structs for easy retrieval.\r\n\r\n    address public issuer; // Store the issuer's address\r\n\r\n    event CertificateIssued(\r\n        address indexed issuedTo,\r\n        string certHash,\r\n        string issuerName,\r\n        string issuedToName,  // recipient's name\r\n        string reason\r\n    );\r\n    // emitted when a certificate is issued, logging the recipient's address, cert hash, issuer name, name, and reason.\r\n\r\n    constructor() {\r\n        issuer = msg.sender; // Set the deployer as the issuer\r\n    }\r\n\r\n    modifier onlyIssuer() {\r\n        require(msg.sender == issuer, \"Only the issuer can issue certificates\");\r\n        _; // Continue with function execution if condition is met\r\n    }\r\n\r\n    function issueCertificate(\r\n\r\n        address _to,\r\n        string memory _certHash,\r\n        string memory _issuerName,\r\n        string memory _issuedToName, \r\n        string memory _reason\r\n\r\n    ) public onlyIssuer{ //restrict access\r\n        \r\n        // check for existing certificates to prevent duplication\r\n        for(uint i = 0; i<certificates[_to].length; i++)\r\n        {\r\n            require(keccak256(abi.encodePacked(certificates[_to][i].certHash)) != keccak256(abi.encodePacked(_certHash)), \"Certificate already issued!\");\r\n        }\r\n\r\n        // issues a new certificate to the specified address.\r\n\r\n        certificates[_to].push(CertificateData({\r\n            certHash: _certHash,\r\n            issuerName: _issuerName,\r\n            issuedTo: _to,\r\n            issuedToName: _issuedToName,  // store the name\r\n            reason: _reason\r\n        }));\r\n        // adds a new certificatedata struct to the recipient's array.\r\n\r\n        emit CertificateIssued(_to, _certHash, _issuerName, _issuedToName, _reason);\r\n        // logs the certificate issuance on the blockchain.\r\n    }\r\n    // issues a certificate to a specified address and emits an event.\r\n\r\n    function getCertificates(address _owner) public view returns (CertificateData[] memory) {\r\n        return certificates[_owner];\r\n    }\r\n    // retrieves all certificates associated with a given address and returns an array of certificatedata structs for the specified owner.\r\n}\r\n",
  "sourcePath": "C:\\Users\\mahad\\Desktop\\Code\\FSWD\\React\\Credora-IEEE\\contracts\\Certificate.sol",
  "compiler": {
    "name": "solc",
    "version": "0.8.27+commit.40a35a09.Emscripten.clang"
  },
  "schemaVersion": "3.4.16",
  "updatedAt": "2024-10-04T22:01:55.116Z",
  "devdoc": {
    "kind": "dev",
    "methods": {},
    "version": 1
  },
  "userdoc": {
    "kind": "user",
    "methods": {},
    "version": 1
  }
}