{
  "contractName": "Certificate",
  "abi": [
    {
      "anonymous": false,
      "inputs": [
        {
          "indexed": true,
          "internalType": "address",
          "name": "issuedTo",
          "type": "address"
        },
        {
          "indexed": true,
          "internalType": "address",
          "name": "issuer",
          "type": "address"
        },
        {
          "indexed": false,
          "internalType": "string",
          "name": "issuerName",
          "type": "string"
        },
        {
          "indexed": false,
          "internalType": "string",
          "name": "issuedToName",
          "type": "string"
        },
        {
          "indexed": false,
          "internalType": "string",
          "name": "reason",
          "type": "string"
        },
        {
          "indexed": false,
          "internalType": "bytes32",
          "name": "uniqueID",
          "type": "bytes32"
        }
      ],
      "name": "CertificateIssued",
      "type": "event"
    },
    {
      "anonymous": false,
      "inputs": [
        {
          "indexed": true,
          "internalType": "bytes32",
          "name": "uniqueID",
          "type": "bytes32"
        },
        {
          "indexed": false,
          "internalType": "string",
          "name": "reason",
          "type": "string"
        }
      ],
      "name": "CertificateRevoked",
      "type": "event"
    },
    {
      "inputs": [
        {
          "internalType": "bytes32",
          "name": "",
          "type": "bytes32"
        }
      ],
      "name": "certificateExists",
      "outputs": [
        {
          "internalType": "bool",
          "name": "",
          "type": "bool"
        }
      ],
      "stateMutability": "view",
      "type": "function"
    },
    {
      "inputs": [
        {
          "internalType": "address",
          "name": "",
          "type": "address"
        },
        {
          "internalType": "uint256",
          "name": "",
          "type": "uint256"
        }
      ],
      "name": "certificates",
      "outputs": [
        {
          "internalType": "address",
          "name": "issuedTo",
          "type": "address"
        },
        {
          "internalType": "address",
          "name": "issuer",
          "type": "address"
        },
        {
          "internalType": "string",
          "name": "issuerName",
          "type": "string"
        },
        {
          "internalType": "string",
          "name": "issuedToName",
          "type": "string"
        },
        {
          "internalType": "string",
          "name": "reason",
          "type": "string"
        },
        {
          "internalType": "uint256",
          "name": "issuedAt",
          "type": "uint256"
        },
        {
          "internalType": "bool",
          "name": "isValid",
          "type": "bool"
        },
        {
          "internalType": "bytes32",
          "name": "uniqueID",
          "type": "bytes32"
        }
      ],
      "stateMutability": "view",
      "type": "function"
    },
    {
      "inputs": [
        {
          "internalType": "bytes32",
          "name": "",
          "type": "bytes32"
        }
      ],
      "name": "revokedCertificates",
      "outputs": [
        {
          "internalType": "bool",
          "name": "",
          "type": "bool"
        }
      ],
      "stateMutability": "view",
      "type": "function"
    },
    {
      "inputs": [
        {
          "internalType": "address",
          "name": "_to",
          "type": "address"
        },
        {
          "internalType": "string",
          "name": "_issuerName",
          "type": "string"
        },
        {
          "internalType": "string",
          "name": "_issuedToName",
          "type": "string"
        },
        {
          "internalType": "string",
          "name": "_reason",
          "type": "string"
        }
      ],
      "name": "issueCertificate",
      "outputs": [
        {
          "internalType": "bytes32",
          "name": "",
          "type": "bytes32"
        }
      ],
      "stateMutability": "nonpayable",
      "type": "function"
    },
    {
      "inputs": [
        {
          "internalType": "bytes32",
          "name": "_uniqueID",
          "type": "bytes32"
        }
      ],
      "name": "verifyCertificate",
      "outputs": [
        {
          "internalType": "bool",
          "name": "isValid",
          "type": "bool"
        },
        {
          "components": [
            {
              "internalType": "address",
              "name": "issuedTo",
              "type": "address"
            },
            {
              "internalType": "address",
              "name": "issuer",
              "type": "address"
            },
            {
              "internalType": "string",
              "name": "issuerName",
              "type": "string"
            },
            {
              "internalType": "string",
              "name": "issuedToName",
              "type": "string"
            },
            {
              "internalType": "string",
              "name": "reason",
              "type": "string"
            },
            {
              "internalType": "uint256",
              "name": "issuedAt",
              "type": "uint256"
            },
            {
              "internalType": "bool",
              "name": "isValid",
              "type": "bool"
            },
            {
              "internalType": "bytes32",
              "name": "uniqueID",
              "type": "bytes32"
            }
          ],
          "internalType": "struct Certificate.CertificateData",
          "name": "certData",
          "type": "tuple"
        }
      ],
      "stateMutability": "view",
      "type": "function"
    },
    {
      "inputs": [
        {
          "internalType": "bytes32",
          "name": "_uniqueID",
          "type": "bytes32"
        },
        {
          "internalType": "string",
          "name": "_reason",
          "type": "string"
        }
      ],
      "name": "revokeCertificate",
      "outputs": [],
      "stateMutability": "nonpayable",
      "type": "function"
    },
    {
      "inputs": [
        {
          "internalType": "address",
          "name": "_owner",
          "type": "address"
        }
      ],
      "name": "getCertificates",
      "outputs": [
        {
          "components": [
            {
              "internalType": "address",
              "name": "issuedTo",
              "type": "address"
            },
            {
              "internalType": "address",
              "name": "issuer",
              "type": "address"
            },
            {
              "internalType": "string",
              "name": "issuerName",
              "type": "string"
            },
            {
              "internalType": "string",
              "name": "issuedToName",
              "type": "string"
            },
            {
              "internalType": "string",
              "name": "reason",
              "type": "string"
            },
            {
              "internalType": "uint256",
              "name": "issuedAt",
              "type": "uint256"
            },
            {
              "internalType": "bool",
              "name": "isValid",
              "type": "bool"
            },
            {
              "internalType": "bytes32",
              "name": "uniqueID",
              "type": "bytes32"
            }
          ],
          "internalType": "struct Certificate.CertificateData[]",
          "name": "",
          "type": "tuple[]"
        }
      ],
      "stateMutability": "view",
      "type": "function"
    }
  ],
  "bytecode": "0x608060405234801561001057600080fd5b50611462806100206000396000f3fe608060405234801561001057600080fd5b506004361061007d5760003560e01c80638eb933ac1161005b5780638eb933ac146100e85780639e84a48014610109578063b440983e1461013c578063f1c49c621461015f57600080fd5b806346f3141c146100825780635bf4adfb146100b2578063850c1768146100c7575b600080fd5b610095610090366004610e73565b61017f565b6040516100a9989796959493929190610ee3565b60405180910390f35b6100c56100c0366004610ffc565b61038b565b005b6100da6100d5366004611043565b6104a4565b6040516100a9929190611108565b6100fb6100f636600461112b565b610906565b6040519081526020016100a9565b61012c610117366004611043565b60026020526000908152604090205460ff1681565b60405190151581526020016100a9565b61012c61014a366004611043565b60016020526000908152604090205460ff1681565b61017261016d3660046111c4565b610b68565b6040516100a991906111e6565b6000602052816000526040600020818154811061019b57600080fd5b60009182526020909120600890910201805460018201546002830180546001600160a01b0393841696509190921693506101d490611248565b80601f016020809104026020016040519081016040528092919081815260200182805461020090611248565b801561024d5780601f106102225761010080835404028352916020019161024d565b820191906000526020600020905b81548152906001019060200180831161023057829003601f168201915b50505050509080600301805461026290611248565b80601f016020809104026020016040519081016040528092919081815260200182805461028e90611248565b80156102db5780601f106102b0576101008083540402835291602001916102db565b820191906000526020600020905b8154815290600101906020018083116102be57829003601f168201915b5050505050908060040180546102f090611248565b80601f016020809104026020016040519081016040528092919081815260200182805461031c90611248565b80156103695780601f1061033e57610100808354040283529160200191610369565b820191906000526020600020905b81548152906001019060200180831161034c57829003601f168201915b50505050600583015460068401546007909401549293909260ff909116915088565b60008281526001602052604090205460ff166103ee5760405162461bcd60e51b815260206004820152601a60248201527f436572746966696361746520646f6573206e6f7420657869737400000000000060448201526064015b60405180910390fd5b60008281526002602052604090205460ff161561044d5760405162461bcd60e51b815260206004820152601e60248201527f436572746966696361746520697320616c7265616479207265766f6b6564000060448201526064016103e5565b60008281526002602052604090819020805460ff191660011790555182907f6a67f6498e0156955d3a658d7124084b43548b0eaa26ee2105ccf42059efe11290610498908490611282565b60405180910390a25050565b6040805161010081018252600080825260208083018290526060838501819052808401819052608084015260a0830182905260c0830182905260e08301829052848252600190529182205460ff1661053e5760405162461bcd60e51b815260206004820152601a60248201527f436572746966696361746520646f6573206e6f7420657869737400000000000060448201526064016103e5565b60008381526002602052604090205460ff16156105b857505060408051610100810182526000808252602080830182905283518082018552828152838501528351808201855282815260608401528351908101909352808352608082019290925260a0810182905260c0810182905260e081019290925291565b60006105c384610dde565b6001600160a01b03811660009081526020818152604080832080548251818502810185019093528083529495509293909291849084015b8282101561082f57600084815260209081902060408051610100810182526008860290920180546001600160a01b039081168452600182015416938301939093526002830180549293929184019161065190611248565b80601f016020809104026020016040519081016040528092919081815260200182805461067d90611248565b80156106ca5780601f1061069f576101008083540402835291602001916106ca565b820191906000526020600020905b8154815290600101906020018083116106ad57829003601f168201915b505050505081526020016003820180546106e390611248565b80601f016020809104026020016040519081016040528092919081815260200182805461070f90611248565b801561075c5780601f106107315761010080835404028352916020019161075c565b820191906000526020600020905b81548152906001019060200180831161073f57829003601f168201915b5050505050815260200160048201805461077590611248565b80601f01602080910402602001604051908101604052809291908181526020018280546107a190611248565b80156107ee5780601f106107c3576101008083540402835291602001916107ee565b820191906000526020600020905b8154815290600101906020018083116107d157829003601f168201915b50505091835250506005820154602080830191909152600683015460ff161515604083015260079092015460609091015290825260019290920191016105fa565b50505050905060005b815181101561089f578582828151811061085457610854611295565b602002602001015160e001510361088d57600182828151811061087957610879611295565b602002602001015194509450505050915091565b80610897816112ab565b915050610838565b505060408051610100810182526000808252602080830182905283518082018552828152838501528351808201855282815260608401528351908101909352808352608082019290925260a0810182905260c0810182905260e08101959095529492505050565b60006001600160a01b03851661095e5760405162461bcd60e51b815260206004820152601960248201527f496e76616c696420726563697069656e7420616464726573730000000000000060448201526064016103e5565b60008251116109a85760405162461bcd60e51b8152602060048201526016602482015275526561736f6e2063616e6e6f7420626520656d70747960501b60448201526064016103e5565b60006109f686426040516bffffffffffffffffffffffff19606084901b1660208201526034810182905260009060540160405160208183030381529060405280519060200120905092915050565b60408051610100810182526001600160a01b03808a168083523360208085019182528486018c8152606086018c9052608086018b90524260a0870152600160c0870181905260e0870189905260009485528483529684208054808901825590855291909320855160089092020180549185166001600160a01b0319928316178155915195820180549690941695169490941790915551929350918291906002820190610aa29082611321565b5060608201516003820190610ab79082611321565b5060808201516004820190610acc9082611321565b5060a0820151600582015560c082015160068201805491151560ff1992831617905560e0909201516007909101556000838152600160208190526040918290208054909316179091555133906001600160a01b038916907f6aac8c387b5b2e037bc06740024b905e75daf7db7172f24aa411f4396058352890610b56908a908a908a9089906113e1565b60405180910390a35095945050505050565b6001600160a01b038116600090815260208181526040808320805482518185028101850190935280835260609492939192909184015b82821015610dd357600084815260209081902060408051610100810182526008860290920180546001600160a01b0390811684526001820154169383019390935260028301805492939291840191610bf590611248565b80601f0160208091040260200160405190810160405280929190818152602001828054610c2190611248565b8015610c6e5780601f10610c4357610100808354040283529160200191610c6e565b820191906000526020600020905b815481529060010190602001808311610c5157829003601f168201915b50505050508152602001600382018054610c8790611248565b80601f0160208091040260200160405190810160405280929190818152602001828054610cb390611248565b8015610d005780601f10610cd557610100808354040283529160200191610d00565b820191906000526020600020905b815481529060010190602001808311610ce357829003601f168201915b50505050508152602001600482018054610d1990611248565b80601f0160208091040260200160405190810160405280929190818152602001828054610d4590611248565b8015610d925780601f10610d6757610100808354040283529160200191610d92565b820191906000526020600020905b815481529060010190602001808311610d7557829003601f168201915b50505091835250506005820154602080830191909152600683015460ff16151560408301526007909201546060909101529082526001929092019101610b9e565b505050509050919050565b6000805b33600090815260208190526040902054811015610e4e57336000908152602081905260409020805484919083908110610e1d57610e1d611295565b90600052602060002090600802016007015403610e3c57503392915050565b80610e46816112ab565b915050610de2565b50600092915050565b80356001600160a01b0381168114610e6e57600080fd5b919050565b60008060408385031215610e8657600080fd5b610e8f83610e57565b946020939093013593505050565b6000815180845260005b81811015610ec357602081850181015186830182015201610ea7565b506000602082860101526020601f19601f83011685010191505092915050565b6001600160a01b0389811682528816602082015261010060408201819052600090610f108382018a610e9d565b90508281036060840152610f248189610e9d565b90508281036080840152610f388188610e9d565b60a0840196909652505091151560c083015260e09091015295945050505050565b634e487b7160e01b600052604160045260246000fd5b600082601f830112610f8057600080fd5b813567ffffffffffffffff80821115610f9b57610f9b610f59565b604051601f8301601f19908116603f01168101908282118183101715610fc357610fc3610f59565b81604052838152866020858801011115610fdc57600080fd5b836020870160208301376000602085830101528094505050505092915050565b6000806040838503121561100f57600080fd5b82359150602083013567ffffffffffffffff81111561102d57600080fd5b61103985828601610f6f565b9150509250929050565b60006020828403121561105557600080fd5b5035919050565b600061010060018060a01b038351168452602083015161108760208601826001600160a01b03169052565b50604083015181604086015261109f82860182610e9d565b915050606083015184820360608601526110b98282610e9d565b915050608083015184820360808601526110d38282610e9d565b91505060a083015160a085015260c08301516110f360c086018215159052565b5060e083015160e08501528091505092915050565b8215158152604060208201526000611123604083018461105c565b949350505050565b6000806000806080858703121561114157600080fd5b61114a85610e57565b9350602085013567ffffffffffffffff8082111561116757600080fd5b61117388838901610f6f565b9450604087013591508082111561118957600080fd5b61119588838901610f6f565b935060608701359150808211156111ab57600080fd5b506111b887828801610f6f565b91505092959194509250565b6000602082840312156111d657600080fd5b6111df82610e57565b9392505050565b6000602080830181845280855180835260408601915060408160051b870101925083870160005b8281101561123b57603f1988860301845261122985835161105c565b9450928501929085019060010161120d565b5092979650505050505050565b600181811c9082168061125c57607f821691505b60208210810361127c57634e487b7160e01b600052602260045260246000fd5b50919050565b6020815260006111df6020830184610e9d565b634e487b7160e01b600052603260045260246000fd5b6000600182016112cb57634e487b7160e01b600052601160045260246000fd5b5060010190565b601f82111561131c57600081815260208120601f850160051c810160208610156112f95750805b601f850160051c820191505b8181101561131857828155600101611305565b5050505b505050565b815167ffffffffffffffff81111561133b5761133b610f59565b61134f816113498454611248565b846112d2565b602080601f831160018114611384576000841561136c5750858301515b600019600386901b1c1916600185901b178555611318565b600085815260208120601f198616915b828110156113b357888601518255948401946001909101908401611394565b50858210156113d15787850151600019600388901b60f8161c191681555b5050505050600190811b01905550565b6080815260006113f46080830187610e9d565b82810360208401526114068187610e9d565b9050828103604084015261141a8186610e9d565b9150508260608301529594505050505056fea2646970667358221220b64510a1d25e9079e708bd3b6ffcf1160de17812c960b91d18dd24d43da27a3c64736f6c63430008130033",
  "immutableReferences": {},
  "source": "// SPDX-License-Identifier: MIT\r\npragma solidity ^0.8.19;\r\n\r\ncontract Certificate {\r\n    struct CertificateData {\r\n        address issuedTo;     // recipient's address\r\n        address issuer;       // issuer's address (new field)\r\n        string issuerName;    // issuer's name\r\n        string issuedToName;  // recipient's human-readable name\r\n        string reason;        // reason for the certificate\r\n        uint256 issuedAt;     // timestamp when certificate was issued\r\n        bool isValid;         // flag to track if certificate is still valid\r\n        bytes32 uniqueID;     // unique identifier for the certificate\r\n    }\r\n\r\n    mapping(address => CertificateData[]) public certificates;\r\n    mapping(bytes32 => bool) public certificateExists;  // Track unique certificates\r\n    mapping(bytes32 => bool) public revokedCertificates;  // Track revoked certificates\r\n    \r\n    // address public immutable issuer;\r\n    \r\n    event CertificateIssued(\r\n        address indexed issuedTo,\r\n        address indexed issuer,  // Added index for issuer\r\n        string issuerName,\r\n        string issuedToName,\r\n        string reason,\r\n        bytes32 uniqueID\r\n    );\r\n\r\n    event CertificateRevoked(\r\n        bytes32 indexed uniqueID,\r\n        string reason\r\n    );\r\n\r\n    // constructor() {\r\n    //     issuer = msg.sender;\r\n    // }\r\n\r\n    // modifier onlyIssuer() {\r\n    //     require(msg.sender == issuer, \"Only the issuer can issue certificates\");\r\n    //     _;\r\n    // }\r\n\r\n    // Generate a unique ID for each certificate\r\n    function generateUniqueID(\r\n        address _to,\r\n        uint256 _timestamp\r\n    ) internal pure returns (bytes32) {\r\n        return keccak256(abi.encodePacked(_to, _timestamp));\r\n    }\r\n\r\n    function issueCertificate(\r\n        address _to,\r\n        string memory _issuerName,\r\n        string memory _issuedToName,\r\n        string memory _reason\r\n    ) public returns (bytes32) { // Return the uniqueID\r\n        require(_to != address(0), \"Invalid recipient address\");\r\n        require(bytes(_reason).length > 0, \"Reason cannot be empty\");\r\n        \r\n        // Generate unique ID for the certificate\r\n        bytes32 uniqueID = generateUniqueID(_to, block.timestamp);\r\n\r\n        // Create new certificate\r\n        CertificateData memory newCert = CertificateData({\r\n            issuedTo: _to,\r\n            issuer: msg.sender,      // Store the issuer's address here\r\n            issuerName: _issuerName,\r\n            issuedToName: _issuedToName,\r\n            reason: _reason,\r\n            issuedAt: block.timestamp,\r\n            isValid: true,\r\n            uniqueID: uniqueID\r\n        });\r\n\r\n        certificates[_to].push(newCert);\r\n        certificateExists[uniqueID] = true;\r\n\r\n        emit CertificateIssued(\r\n            _to, \r\n            msg.sender,            // Emit the issuer's address here\r\n            _issuerName, \r\n            _issuedToName, \r\n            _reason,\r\n            uniqueID\r\n        );\r\n\r\n        return uniqueID; // Return the unique ID after issuing the certificate\r\n    }\r\n\r\n    // Verify a specific certificate by its unique ID\r\n    function verifyCertificate(bytes32 _uniqueID) public view returns (\r\n        bool isValid,\r\n        CertificateData memory certData\r\n    ) {\r\n        require(certificateExists[_uniqueID], \"Certificate does not exist\");\r\n        \r\n        // Check if certificate is revoked\r\n        if (revokedCertificates[_uniqueID]) {\r\n            return (false, CertificateData(address(0), address(0), \"\", \"\", \"\", 0, false, _uniqueID));\r\n        }\r\n\r\n        // Find the certificate\r\n        address recipient = findCertificateRecipient(_uniqueID);\r\n        CertificateData[] memory recipientCerts = certificates[recipient];\r\n        \r\n        for (uint i = 0; i < recipientCerts.length; i++) {\r\n            if (recipientCerts[i].uniqueID == _uniqueID) {\r\n                return (true, recipientCerts[i]);\r\n            }\r\n        }\r\n        \r\n        return (false, CertificateData(address(0), address(0), \"\", \"\", \"\", 0, false, _uniqueID));\r\n    }\r\n\r\n    // Helper function to find certificate recipient by uniqueID\r\n    function findCertificateRecipient(bytes32 _uniqueID) internal view returns (address) {\r\n        for (uint i = 0; i < certificates[msg.sender].length; i++) {\r\n            if (certificates[msg.sender][i].uniqueID == _uniqueID) {\r\n                return msg.sender;\r\n            }\r\n        }\r\n        return address(0);\r\n    }\r\n\r\n    // Revoke a certificate\r\n    function revokeCertificate(bytes32 _uniqueID, string memory _reason) public {\r\n        require(certificateExists[_uniqueID], \"Certificate does not exist\");\r\n        require(!revokedCertificates[_uniqueID], \"Certificate is already revoked\");\r\n        \r\n        revokedCertificates[_uniqueID] = true;\r\n        emit CertificateRevoked(_uniqueID, _reason);\r\n    }\r\n\r\n    // Get all certificates for an address\r\n    function getCertificates(address _owner) public view returns (CertificateData[] memory) {\r\n        return certificates[_owner];\r\n    }\r\n}\r\n",
  "sourcePath": "C:\\Users\\mahad\\Desktop\\Code\\FSWD\\React\\Credora-IEEE\\contracts\\Certificate.sol",
  "compiler": {
    "name": "solc",
    "version": "0.8.19+commit.7dd6d404.Emscripten.clang"
  },
  "schemaVersion": "3.4.16",
  "updatedAt": "2024-10-07T01:35:57.742Z",
  "devdoc": {
    "kind": "dev",
    "methods": {},
    "version": 1
  },
  "userdoc": {
    "kind": "user",
    "methods": {},
    "version": 1
  }
}